:020000044000BA
:10000000973100019381018097220001938282FF42
:10001000168197000600E78040D4F3F20530735351
:100020004030856393830380F3A343309962F3A246
:1000300002307310300097E201009382A27C73902B
:0C00400052307360017DEFA0C31101A0DD
:100200002A832E8E814863DB0500B337A000330EAE
:10021000B040330EFE403303A040FD5863DB0600C0
:10022000B337C000B306D04093C8F8FF9D8E3306A5
:10023000C04032871A88F287639F0620B7E50640E0
:10024000938505456371CE0CC1666377D60A9336F4
:10025000061093C616008E063355D600AA9583C5A0
:10026000050013050002AE96B305D540630BD5001B
:10027000B317BE00B356D3003317B600D58F33186B
:10028000B3009355070133DEB7021316070141820D
:10029000B3F7B70272853303C603939607019357EA
:1002A0000801D58F63FC6700BA971305FEFF63E76B
:1002B000E70063F567001305EEFFBA97B387674061
:1002C00033D3B702420813580801B3F7B702B30695
:1002D0006602C2073368F8009A87637BD8003A98B1
:1002E0009307F3FF6366E8006374D8009307E3FFA6
:1002F00042055D8D81454DA837050001C146E36D7E
:10030000A6F4E14691BF11E20290C1676378F60A54
:100310009336061093C616008E06B357D600BE95C8
:1003200083C70500B69793060002B385F640639E27
:10033000F608B307CE40854513530701B3DE6702C5
:1003400013160701418293560801B3F767027685B9
:10035000330ED603C207D58F63FCC701BA97138546
:10036000FEFF63E7E70063F5C7011385EEFFBA9769
:10037000B387C74133DE6702420813580801B3F759
:100380006702B306C603C2073368F800F287637BCF
:10039000D8003A989307FEFF6366E8006374D800BC
:1003A0009307EEFF42055D8D63890800B337A00017
:1003B000B305B0409D8D3305A0408280B707000192
:1003C000C146E36CF6F4E14689BF3317B600B35675
:1003D000FE0013550701331EBE00B357F300B3E709
:1003E000C70133DEA6021316070141823318B3009A
:1003F000B3F6A6023303C6039395060193D607010D
:10040000CD8EF28563FC6600BA969305FEFF63E726
:10041000E60063F566009305EEFFBA96B386664084
:1004200033D3A602C207C183B3F6A602330666021F
:10043000C206D58F9A8663FCC700BA979306F3FF6E
:1004400063E7E70063F5C7009306E3FFBA97C205C9
:10045000918FD58DD5B56361DE14C16763FFF60258
:1004600013B70610134717000E07B7E70640B3D5BA
:10047000E60093870745AE9783C70700BA9713072F
:100480000002B305F7406311F7020545E3EEC6F13C
:100490003335C3001345150001BFB70700014147BD
:1004A000E3E5F6FC6147D1B73357F600B396B600E3
:1004B000D98E3357FE00331EBE00B357F300B3E7A7
:1004C000C70113DE0601335FC703139806011358F3
:1004D00008013316B6003377C703B30EE8031315CC
:1004E000070113D70701498F7A85637CD7013697B7
:1004F0001305FFFF6367D7006375D7011305EFFF8F
:1005000036973307D741B35EC703C207C18333773A
:10051000C7033308D8034207D98F768763FC0701E6
:10052000B6971387FEFF63E7D70063F507011387CC
:10053000EEFFB6974205C16E598D9386FEFF337765
:10054000D500B3870741F18E135805014182330E60
:10055000D702B306D8023307C7023308C8023306EE
:10056000D70013570E0132976373D70076989356CE
:100570000701C29663E0D702E39ED7D6C167FD1795
:100580007D8F4207337EFE003313B300729781459F
:10059000E37CE3E07D15B9BB8145014531B52E8E85
:1005A000014863DB0500B337A000B305B040338ECC
:1005B000F5403305A0407D5863D90600B337C0002D
:1005C000B306D0409D8E3306C040B288AA87F2851C
:1005D0006399061C37E7064013070745637FCE0A79
:1005E000C1666375D60A9336061093C616008E064A
:1005F0003353D6001A970347070036979306000235
:100600003383E640638BE600B3156E003357E50095
:10061000B3186600D98DB317650093D6080133D798
:10062000D502139508014181B3F5D5023307A7021E
:100630001396050193D50701D18D63F8E500C695A2
:1006400063E5150163F3E500C695998D33D7D502AF
:10065000C207C183B3F5D5023307A702C205CD8F08
:1006600063F8E700C69763E5170163F3E700C697F1
:10067000998F33D56700814563090800B337A0001F
:10068000B305B0409D8D3305A04082803703000143
:10069000C146E36F66F4E146A1BF11E20290C16674
:1006A0006371D6089336061093C616008E06B355AE
:1006B000D6002E9703470700369793060002338330
:1006C000E6406397E6063307CE4093D508013356DC
:1006D000B70213950801418193D607013377B7021A
:1006E0003306A6024207558F6378C70046976365B5
:1006F00017016373C7004697118FB356B702C2073D
:10070000C1833377B702B386A6024207D98F63F855
:10071000D700C69763E5170163F3D700C697958F97
:1007200089BFB7050001C146E363B6F8E14641B7AA
:10073000B3186600B356EE00B3156E003357E500EC
:10074000B317650013D508014D8FB3D5A602139ECC
:100750000801135E0E01B3F6A602B385C503139616
:10076000060193560701D18E63F8B600C69663E57D
:10077000160163F3B600C6968D8E33D6A6024207E5
:100780004183B3F6A6023306C603C206558F6378CB
:10079000C7004697636517016373C7004697118FBB
:1007A0002DB7E36BDEEC416763F6E60413B7061082
:1007B000134717000E07B7E8064033D3E6009388C7
:1007C00008459A9803C308003A9313070002B30838
:1007D00067406318670263E4C601636BC5003306B4
:1007E000C540B306DE40B335C500B385B640B28719
:1007F0003E8559B5B70800014147E3EE16FB614756
:100800005DBFB3576600B3961601DD8E33576E0099
:1008100093DE0601B35FD703B3151E01139E0601D5
:10082000135E0E01B3576500DD8D93D705013316B6
:100830001601331515013377D703330FFE03420733
:10084000D98F7E8763FCE701B6971387FFFF63E7C5
:10085000D70063F5E7011387EFFFB697B387E7414A
:1008600033DFD703C205C181B3F7D703330EEE03DD
:10087000C207DD8DFA8763FCC501B6959307FFFFBC
:1008800063E7D50063F5C5019307EFFFB69542070F
:10089000C16F5D8FB385C541138EFFFFB377C7016D
:1008A000935E06014183337EC601338FC703330E47
:1008B000C703B387D7033307D703B38EC701935753
:1008C0000F01F69763F3C7017E9713DE0701729756
:1008D000416E7D1EB3F7C701C207337FCF01FA9780
:1008E00063E6E500639BE5006379F5003386C74066
:1008F000B3B7C700B6971D8FB287B307F54033353E
:10090000F500998D898D33936500B3D71701336551
:10091000F300B3D515018DB32A83AE8832872A88B8
:10092000AE8763960620B7E506409385054563F1DB
:10093000C80CC1666377D60A9336061093C61600B4
:100940008E063355D600AA9583C50500130500020F
:10095000AE96B305D540630BD500B397B800B35638
:10096000D3003317B600D58F3318B3009355070162
:1009700033D3B702131607014182B3F7B7021A85C2
:10098000B30866029396070193570801D58F63FC5D
:100990001701BA971305F3FF63E7E70063F5170143
:1009A0001305E3FFBA97B3871741B3D8B7024208DC
:1009B00013580801B3F7B702B3061603C20733682A
:1009C000F800C687637BD8003A989387F8FF636680
:1009D000E8006374D8009387E8FF42055D8D814588
:1009E000828037050001C146E36DA6F4E14691BF60
:1009F00011E20290C167637FF6089336061093C632
:100A000016008E06B357D600BE9583C70500B6976D
:100A100093060002B385F6406395F608B387C84095
:100A200085459358070133DE1703131607014182EA
:100A300093560801B3F7170372853303C603C20741
:100A4000D58F63FC6700BA971305FEFF63E7E700E5
:100A500063F567001305EEFFBA97B387674033D39A
:100A60001703420813580801B3F71703B3066602C9
:100A7000C2073368F8009A87637BD8003A989307D7
:100A8000F3FF6366E8006374D8009307E3FF420551
:100A90005D8D8280B7070001C146E365F6F6E14649
:100AA00095B73317B600B3D6F80013550701B357FF
:100AB000F3003318B30033D3A60213160701B3981B
:100AC000B8004182B3E71701B3F6A602B308660285
:100AD0009395060193D60701CD8E9A8563FC160186
:100AE000BA969305F3FF63E7E60063F516019305F5
:100AF000E3FFBA96B3861641B3D8A602C207C183F4
:100B0000B3F6A60233061603C206D58FC68663FC6B
:100B1000C700BA979386F8FF63E7E70063F5C7005D
:100B20009386E8FFBA97C205918FD58DDDBD63E14D
:100B3000D514C16763FFF60213B7061013471700F9
:100B40000E07B7E70640B3D5E60093870745AE9793
:100B500083C70700BA9713070002B305F740631174
:100B6000F7020545E3EE16E73335C30013451500DC
:100B70008280B70700014147E3E5F6FC6147D1B742
:100B80003357F600B396B600D98E33D7F800B39832
:100B9000B800B357F300B3E7170193D80601B35E6B
:100BA000170313980601135808013316B60033775C
:100BB0001703330ED8031315070113D70701498F05
:100BC0007685637CC70136971385FEFF6367D70080
:100BD0006375C7011385EEFF36973307C741335E50
:100BE0001703C207C183337717033308C8034207CB
:100BF000D98F728763FC0701B6971307FEFF63E77F
:100C0000D70063F507011307EEFFB6974205416E63
:100C1000598D9306FEFF3377D500B3870741F18ED8
:100C2000135805014182B308D702B306D80233072F
:100C3000C7023308C8023306D70013D7080132971A
:100C40006373D700729893560701C29663E0D70288
:100C5000E397D7D8C167FD177D8F4207B3F8F80037
:100C60003313B30046978145E37CE3D67D1585BBFE
:100C70008145014582803288AA872E876393061AB0
:100C8000B7E806409388084563F6C50AC166637CE9
:100C9000D6089336061093C616008E063353D60038
:100CA0009A9883C8080013030002C696B308D3407D
:100CB000630BD30033971501B356D50033181601D3
:100CC000558FB317150113560801B356C7021315F4
:100CD000080141813377C702B386A6029315070145
:100CE00013D707014D8F6378D700429763650701DB
:100CF0006373D7004297158FB356C7023377C70285
:100D0000B386A602C2074207C183D98F63F8D70012
:100D1000C29763E5070163F3D700C297958F33D578
:100D200017018145828037030001C146E36866F6FA
:100D3000E146ADB711E2029041676374E60693366F
:100D4000061093C616008E063357D600BA9803C70E
:100D50000800369793060002B388E640639AE604DB
:100D60003387C540935508013356B7021315080160
:100D7000418193D607013377B7023306A6024207B3
:100D8000558F6378C7004297636507016373C70097
:100D90004297118FB356B7023377B702B386A602D4
:100DA00095B737070001C146E360E6FAE14669BF3F
:100DB00033181601B3D6E500B3171501B395150125
:100DC0003357E500135508014D8FB3D5A602131311
:100DD000080113530301B3F6A602B3856502139607
:100DE000060193560701D18E63F8B600C29663E5FB
:100DF000060163F3B600C2968D8E33D6A602420773
:100E00004183B3F6A60233066602C206558F6378A5
:100E1000C7004297636507016373C7004297118F4C
:100E200091B763E8D516416863F7060513B8061055
:100E3000134818000E08B7E8064033D3060193881C
:100E400008459A9883C8080013030002C298330823
:100E500013416319130363E4B600636BC5003306E3
:100E6000C540B386D5403337C5003387E640B287E7
:100E70003E85BA858280B70800014148E3ED16FB44
:100E8000614855BFB3960601335316013363D3004F
:100E9000135E0301B3D6150133DFC6031317030135
:100EA0004183B3970501B3551501DD8D93D7050136
:100EB0003316060133150501B3F6C603B30EE70377
:100EC000C206D58FFA8663FCD7019A979306FFFF77
:100ED00063E7670063F5D7019306EFFF9A97B3873F
:100EE000D741B3DEC703C205C181B3F7C7033307D8
:100EF000D703C207DD8DF68763FCE5009A959387DB
:100F0000FEFF63E7650063F5E5009387EEFF9A95C2
:100F1000C206416FDD8E9307FFFF135E0601998DB8
:100F200033F7F600C182F18FB30EF702B387F602F2
:100F30003307C703B386C603330EF70013D70E017A
:100F400072976373F700FA9693570701B697C166D5
:100F5000FD16758F4207B3FEDE00769763E6F50057
:100F6000639BF5006379E5003306C7403337C7005C
:100F70001A97998F32873307E5403335E5009D8D09
:100F8000898DB39815013357070133E5E800B3D5D0
:100F9000050182805971D2CCD6CAEAC02A8A86D687
:100FA000A2D4A6D2CAD0CECEDAC8DEC6E2C4E6C289
:100FB0009441D8419C4583AAC50003230600832899
:100FC00046000846032DC600F32920003EDC3EC43F
:100FD00093970A01C18313941A008A8556DE3EC690
:100FE00036D83ADA36C03AC2458093DAFA011306A7
:100FF00041FFAE872E88D8479447F1170E07F58238
:10100000558F98CBE319F6FE024993170D01C18362
:10101000131C1D000E0946DA46CA930801012ADC9A
:101020006ADE2ACC3ECE4AC01AD81AC8135C1C010C
:10103000135DFD015000C6874685D8479447F117D8
:101040000E07F582558F98CBE319F6FEC244B3071D
:1010500084418E0426C8639DAA6F6359F024124B05
:10106000A24BB24C63130C0A52466247F245B36678
:10107000E600CD8EC58E8DEA21677D176390E7026D
:1010800033677B01336797013367270101CB13DC9B
:101090002C01134C1C00137C1C00120C4AD05AD299
:1010A0005ED466D66284E5A49386F7FF9DEACA946F
:1010B0005A9626D0B3B42401B30796003ED23336F5
:1010C0006601B3B797005D8E5E97B307C7003ED445
:1010D00033377701B3B7C7005D8FE6952E97854705
:1010E00089A221677D17E392E77A33677B01336733
:1010F000970133672701014419C713D42C01134406
:101100001400058812044AD089AC21677D17631743
:10111000E402B3677B01B3E79701B3E72701014717
:1011200099C713D72C0113471700058B1207A28705
:101130004AD05AD25ED466D63A8491AC7247B7068A
:101140000800558F3ACE13074007E344F774BE8674
:1011500093D756404686814401476315F702FD8ABE
:10116000139727008DE60D461D8EB385E8008C4150
:101170008506910823AEB8FEE359D6FE1147B307A2
:10118000F740B1A00C4205071106CD8CF9B7130644
:1011900007040A96032606FD130800023308D84008
:1011A00033160601D18CBA983306E0400D4701434F
:1011B0001D8F634CE30C1146B307F64072460A07D5
:1011C000130707040A97B356D6002328D7FC114605
:1011D0001D8E8A073E950A068145EF307070C24722
:1011E000B3349000C58F3EC84247D2474A97DA973A
:1011F0003AD033372701B386E70036D2B3B6E600DC
:101200006247B3B76701D58F5E97B306F70036D450
:10121000B3B6F600F24733377701558FE6973E971E
:10122000A287370608003AD6798E8256E30A06521C
:101230003706F8FF7D16718F3AD68507FE0618101F
:10124000681010434C430582FE054D8E10C31107F4
:10125000E319A7FE325705833AD63337D0008256BA
:10126000558F3AD021677D17639FE7486386094C05
:101270000D476399E94C63810A4CFD573ED63ED435
:101280003ED23ED0A167F91765A983A5080003AE39
:101290004800B38EC800B3D5D500331E0E01B3E5A8
:1012A000C50123A0BE000503910821B7524BE24BB4
:1012B000F24C63840720B3078C4045E492462247F2
:1012C000324533E6E600498E336626010DEA216792
:1012D0007D17639EE70033677B0133679701458F76
:1012E00019C713D42C01134414000588120426D006
:1012F0005AD25ED466D681466388071EF9A4138647
:10130000F7FF15EA2699DA964AD033399900B38760
:1013100026013ED2B3B66601B3B72701DD8E5E97D4
:10132000B307D7003ED433377701B3B7D7005D8F0B
:1013300066952A976DB321677D17E392E756336769
:101340007B0133679701458F014419C713D42C01E2
:10135000134414000588120426D05AD25ED466D6EF
:101360003DA021677D176316EC02B3677B01B3E7ED
:101370009701C58F014499C713D42C01134414005D
:101380000588120426D05AD25ED466D6E2878146FA
:101390002DAC3247B7060800558F3AC613074007F1
:1013A000E343F7503E8693070002B347F602AE864A
:1013B00001440147634BF7023E8763D307000147AF
:1013C0009378F60193962700639608020D4601472D
:1013D0001D8E3385D5000841050788C19105E35A64
:1013E000E6FE1147B307F74089A888420507910632
:1013F000498CC9B7130500023366A6020A07130712
:1014000007040A97032707FCB6950143B306D040AB
:101410003306C5403317C700598C0D471D8F634EE7
:10142000E3069146B387F640B2460A07130707045E
:101430000A97B3D616012320D7FC1147014663450E
:10144000F7001D8F131627008A073305F800814522
:10145000EF301049824733348000C18F3EC00247CD
:1014600092472697DA973AD033379700B386E7004A
:1014700036D2B3B6E6002247B3B76701D58F5E9781
:10148000B306F70036D4B3B6F600B2473337770168
:10149000558FE6973E97E28769B3884103AE4500D2
:1014A000B38ED50033551501331ECE003365C5010B
:1014B00023A0AE00050391059DB721659307140095
:1014C0009306E5FFFD8E1246A24532476390061E45
:1014D000B367B600D98FB3E72701631F0412D9E3BE
:1014E00026D05AD25ED466D682551256A2563257AC
:1014F000B3E7C500D58FD98FE388072832DA2ED815
:1015000036DC3ADE1C185010D8479447F11706070E
:10151000FD82558F98CBE319F6FEC257860713F765
:101520007700E30B07240947F25613641400E383A2
:10153000E9240D47E389E922E390092413F7F70032
:101540001146E30BC722910793B7470052573E97C6
:101550003337F700E257BA97B3B7E700B6973EDEE6
:101560006F009021B3677B01B3E79701C58F91E7C7
:101570004AD032D22ED43AD685BFCA94329B26D0D6
:10158000B3B42401B3079B003ED2333BCB00B3B7C7
:101590009700336BFB00AE9BB3876B013ED4B3BBAC
:1015A000BB00B3B76701B3EBFB006697BA9BB70705
:1015B0000800B3F7FB0099E35ED63DB7B707F8FF25
:1015C000FD17B3FBFB005ED6854702571376770005
:1015D000E309061C0946B25513641400E381C91CD3
:1015E0000D46E386C91AE39E091A1376F7001145E2
:1015F000E309A61A11073AD01337470012563A9654
:1016000032D23336E600225732973AD43337C70006
:101610002E973AD66F00F0187D15631FA404E38A55
:10162000072A135427011344140005881204631277
:10163000AC0633657B0133659501458DE3040528D0
:101640003707040033F7EC00E302072885CFA167D2
:101650003ED602D402D202D01C104C08D847904784
:10166000F1170E077582518F98CBE399F5FE8257DB
:10167000814A8E073ED019A86314AC00014455BFBF
:10168000014481EB26D05AD25ED466D6A167FD17FD
:101690002DBF336B7B01336B9B01336B9B00E318D6
:1016A0000BFA4AD032D22ED43AD6CDB7CA94329B56
:1016B00026D0B3B42401B3069B0036D2333BCB0013
:1016C000B3B69600AE9B336BDB00B3866B0136D4AA
:1016D000B3BBBB00B3B666016697B3EBDB00BA9B46
:1016E0005ED618106C101443504385827E06D18E4E
:1016F00014C31107E399E5FEA166FD16325763870F
:10170000D70005833AD681460144C1B563860902F4
:101710000D47639EE90063810A02FD573ED63ED421
:101720003ED23ED0A1678146F917154479BD0947DD
:10173000E395E9FEE3830AFE02D602D402D202D088
:101740008146E5B70947E39AE9B2E3880AB2EDB703
:101750006356F01C124BA24BB24C631E0C06D245D2
:1017600062437247B3E66500D98EC58EE386069064
:101770001388F7FF63140804B30699403306BB408F
:101780003335D900B337CB00098E01456376D900D4
:10179000B385654113B51500B3856B405D8DB3B856
:1017A000BB00898D09C5B307734113B81700338790
:1017B000EC40B36718011D8F85470DA221677D1787
:1017C000E385E7929307400763D5070302CE02CC77
:1017D00002CA85476DA821677D17E30CE492724722
:1017E000B7060800558F3ACE13074007E340F7FECF
:1017F0003E8893575840C686814401476318F702D4
:101800001378F80113972700631708020D468146E5
:101810001D8EB385E8008C418506910823AEB8FE85
:10182000E359D6FE1147B307F740B1A09042050730
:101830009106D18CE1B7930607048A9683A606FD2C
:1018400093050002B3850541B396B600D58CBA98CE
:10185000B306E0400D4701431D8F6340E30A914604
:10186000B387F640F2460A07130707040A97B3D670
:1018700006012328D7FC11461D8E8A073E950A06CD
:101880008145EF30F005C247B3349000C58F3EC8A4
:10189000C2465247B306D9403306EB40B337D900AE
:1018A000B335CB001D8E81476376D900330767417E
:1018B000933717006247CD8F0145B385EB4033B8AE
:1018C000BB009D8D89C733077741133517007247D9
:1018D00033650501A2873387EC40098F36D0B70600
:1018E000080032D23AD62ED43376D700630A066681
:1018F000FD16758F3AD63E8459A903A6080003AE9B
:101900004800B38ED80033560601331EBE0033663E
:10191000C60123A0CE000503910881B7D24B624BCC
:10192000F24C63850722B3078C404DEC9248224E5F
:101930003247B3E6C801D98EB3E626019DE621679A
:101940007D17639EE70033E76B0133679701458F8F
:1019500019C713D42C01134414000588120426D08F
:101960005ED25AD466D6EA8A79B21383F7FF63143B
:101970000304B386244133861B41B3B5D400B3B707
:10198000CB0001450D8E63F6D400B388784113B5C2
:101990001800B305CB415D8D3338BB00898D09C577
:1019A000B3076E4113B317003387EC40B3670301ED
:1019B0001D8FEA8A11B521677D17639CE76E33E7B7
:1019C0006B0133679701458F014419C713D42C016C
:1019D000134414000588120426D05ED25AD466D669
:1019E000EA8A75B221677D176315EC02B3E76B01D4
:1019F000B3E79701C58F014499C713D42C01134451
:101A000014000588120426D05ED25AD466D6E28726
:101A1000C1BF3247B7060800558F3AC613074007C3
:101A2000634DF7683E8393070002B347F302AE8627
:101A300001440147634AF7023E8763D30700014729
:101A40001375F301939627000DE50D4601471D8E92
:101A50003385D5000841050788C19105E35AE6FEA4
:101A60001147B307F74089A8904205079106518CAA
:101A7000D1B7130600023363C3020A071307070432
:101A80000A97032707FCB6958148B306D040330375
:101A9000664033176700598C0D471D8F63C8E808EF
:101AA0009146B387F640B2460A07130707040A9720
:101AB000B3D6A6002320D7FC114701466345F700A3
:101AC0001D8F131627008A073305F8008145EF3074
:101AD0002061824733348000C18F3EC08246124766
:101AE000B386D4403386EB40B3B7D400B3B5CB0054
:101AF0001D8E814763F6D400330777419337170073
:101B00002247CD8F0145B305EB403338BB009D8D97
:101B100089C733076741133517003247336505011D
:101B2000E2873387EC40098FEA8A4DBB904103AED0
:101B30004500B38ED5003356A600331E6E003366C3
:101B4000C60123A0CE008508910589BF21689306B0
:101B500014001307E8FFF98E1246A2453245639B35
:101B60000618B367B60033E76B01C98F3367970177
:101B7000B3E72701458F61EC89EF26D05ED25AD4B6
:101B800066D6EA8AE3120796938AE9FF93BA1A00A7
:101B9000A1BA11E74AD032D22ED42AD6B1B2B307B5
:101BA000994033037641B336F90033386600B30603
:101BB000D34001476374F9001337130033670701FB
:101BC00033886541B3BE0501330EE840814819C32F
:101BD00093381800B3E8D80133079541330717410C
:101BE000B70808003AD672D436D23ED0B37817017F
:101BF00063880804338924413386CB40B3B724017A
:101C0000B3BBCB001D8E814763F4240193371300CF
:101C1000B3EB7701B305BB40333BBB008147B385D2
:101C2000754163840B00933718003385AC40B3E7EC
:101C300067011D8D2AD62ED432D24AD0EA8A6DB0E1
:101C4000D58FB3E7C701D98FE390078A35BF7D18D9
:101C500063160405638907481354250113441400CF
:101C60000588120463120C09630A0746370704004B
:101C700033F7EC0063070746ADC3A1673ED602D435
:101C800002D202D01C104C08D8479047F1170E071B
:101C90007582518F98CBE399F5FED1BA63140C018C
:101CA0000144D9B7A9E30DEBA1673ED602D402D215
:101CB00002D01C104C08D8479047F1170E077582C8
:101CC000518F98CBE399F5FE8257814A41448E07A4
:101CD0003ED0A167FD17D5B8014426D05ED25AD4B4
:101CE00066D6EA8A65B2014449FB4AD032D22ED484
:101CF0002AD669BAB308994033037641333E1901B5
:101D0000B3366600330EC3410147637419011337BC
:101D10001300558F3388654133BF0501B30EE8408A
:101D2000814619C393361800B3E6E601330795419F
:101D3000158FB70608003AD676D472D246D0F98EFF
:101D4000638C060E338924413386CB4033B724019C
:101D5000B3BBCB00198E014763F424011337130082
:101D6000B305BB40B36B7701333BBB00B385754113
:101D700063840B00933718003385AC4033EB670165
:101D8000330565412AD62ED432D24AD0EA8A32555A
:101D900069C1EF302031930445FF1307000213F5AA
:101DA000F401B3C7E40271C993080102B3E6E40287
:101DB0003306D740F156B386D7021387C60046973D
:101DC000B306D040639BE80C02571386F7FF8A07DF
:101DD000938707048A973317A70023A0E7FE050619
:101DE0000A0681450810EF30A02F63C38416818C4A
:101DF00085041305000233C5A4021410368701447C
:101E0000814763CBA70AAA8763530500814713F86C
:101E1000F401131725006316080A0D468147098E41
:101E2000B385E6008C4185078CC29106E35AF6FE25
:101E300091473385A740D1A8B3E7C801B3E7D701DD
:101E4000D98FB1F7938AE9FF93BA1A0001446FF072
:101E5000AFE9225511C5EF30E0241305050225BF77
:101E6000125511C5EF300024130505042DB7025596
:101E7000EF3040231305050639BF71563386C7027C
:101E800078108D46B305C7008C41FD1671174CC301
:101E9000E3DAF6FE1386F7FF99B70C430328C7FF72
:101EA0003303D700B395A5003358C800B3E5050147
:101EB0002320B300711739B7104385071107518CE0
:101EC00089B793060002B3E4D4028A079387070414
:101ED0008A9783A707FE8148858EB397D7005D8CCC
:101EE0001C103386E7008D473307E040898F63C1BC
:101EF000F80411473305A74032578A079387070430
:101F00008A973357070123A0E7FE9147014663C52F
:101F1000A700898F139627001C100A053E9581455E
:101F2000EF30001C0257B3378000D98F3ED039BF45
:101F30000C4203234600330EE600B3D505013313EC
:101F4000D300B3E565002320BE008508110645B720
:101F50003257B706F8FFFD16758FB30794403AD68F
:101F600001446FF04FB963990A00A10793B7870046
:101F70006FF0CFDDE39B0AFEF2568147D18293C614
:101F80001600858A6FF06FE481476FF04FC0639A47
:101F90000A0021073AD0133787006FF02FE6E39A43
:101FA0000AFE91C61377140019C313642400325734
:101FB000B7060800F98EB9C2B706F8FFFD16758F8F
:101FC000A1663AD685071387F6FF6399E7020147B2
:101FD000638009020D466398C900638B0A007D5730
:101FE0009387E6FF31A00946E39BC9FEE3890AFE19
:101FF0003AD63AD43AD23AD01364540018106C103E
:10200000144350438D827606D18E14C31107E31911
:10201000B7FEB25621661307F6FF8D8236D6639E51
:10202000E700925502574D8FA2554D8F558F11C71E
:1020300032D602D402D202D0814AB255C607C58335
:10204000BE0AB3EAFA00231EB102231F510302564F
:1020500092562257F25719C073201400B6502654D6
:102060002320CA002322DA002324EA002326FA00D0
:1020700096540659F649D64A464BB64B264C964CD2
:10208000064D5285664A656182809307400763D199
:10209000D78C02CE02CC02CA85476FF0CF9493074B
:1020A000400763D2C7B002C602C402C285476FF0C0
:1020B000EFBA93074007E3D8679602C602C402C28C
:1020C000854721BC639F07DC6FF0CFDB41446FF095
:1020D000EFD763058CDA01446FF0CFDAE39707C0DE
:1020E000E1B6414451BEE3108CBC5DBE717126D394
:1020F0004ECF52CD56CB62C566C3AA89DC4188411A
:10210000984583AAC500832C06004442032C860010
:10211000032AC60006D722D54AD15AC95EC76AC16A
:10212000EEDE73292000216613940A0193DB0A0175
:1021300041807D16D6D6AAD0BED2BAD42AD83EDAED
:102140003ADC22DEB3F6CB0093DAFA019DCA638350
:10215000C610C1675D8C22DE1C184C10D847904712
:10216000F1170E077582518F98CBE399F5FEC25790
:102170008E073ED8F1778507B38BF600014B0144FB
:10218000F5A0B3E6A700D98EC18E638E06142DC0CC
:102190002285EF203071AA8B93864BFF93D7564050
:1021A000FD8AB5CA71563386C7021305000293082B
:1021B0000103158D1307C60046973306C040639C84
:1021C000E8061386F7FF8A07181893870704BA975B
:1021D00042573317D70023A0E7FC05060A068145BE
:1021E0000818EF20F06FF176C506B38B764179B70A
:1021F00019C73A85EF20106B930B050271BF99C781
:102200003E85EF20306A930B050479B7EF20906983
:10221000930B050651B771563386C70278188D4661
:10222000B305C7008C41FD1671174CC3E3DAF6FE07
:102230001386F7FF5DB70C430328C7FF3303C700BE
:10224000B395D5003358A800B3E505012320B300AA
:102250007117B5B7C98FD98FC18FC9CB42044184DB
:102260001344F4FF7D801204B68B0D4B13150A0145
:10227000216793570A0141817D17D2D6E6D0A6D2B5
:10228000E2D4E6C0A6C2E2C4AAC6F98F135AFA0184
:10229000ADC36389E7124167598DAAC698004C18EF
:1022A0005447104771178E067582D18E14CBE3996F
:1022B000E5FE06470E07BAC071770507BA970147D2
:1022C000B386FB4093172B00D98FFD173946B3C453
:1022D0004A016364F61237E606408A071306464150
:1022E000B2979C438287814B054B51BDB68B094BFE
:1022F00079B5B3E79401B3E78701C98FFDC339CD41
:10230000EF20505AAA84938644FF93D75640FD8A03
:10231000BDCA71563386C702130500029308010433
:10232000158D1307C60046973306C040639DE80627
:102330001386F7FF8A07181893870704BA9706478A
:102340003317D70023A8E7FC05060A068145880055
:10235000EF201059F177C507858F95B763080C00FA
:102360006285EF2030549304050271BF99C426851D
:10237000EF2050539304050479B76685EF209052FF
:102380009304050649B771563386C702F8008D4697
:10239000B305C7008C41FD1671174CC3E3DAF6FE96
:1023A0001386F7FF55B70C430328C7FF3303C70055
:1023B000B395D5003358A800B3E505012320B30039
:1023C0007117ADB7B3E49401B3E48401C98C094734
:1023D000E38804EE420541850D47E34305EE4144A1
:1023E000C5B581470547E9BD4144216AD2CE82CCBB
:1023F00082CA82C87D1A81443DA37255B64582D6F1
:1024000082D482D282D0C2575257264663E1A502B7
:102410006319B518E255636CB6006394C518164687
:102420006367E600631FE616064763ECE716FE07E0
:10243000BED66C181C189843D04305837E06518F76
:1024400098C39107E399F5FEF25785833EDE9C0021
:102450004C18D8479047F11732075182518F98CBCB
:10246000E399F5FE36488645416E96487D1EB205D5
:10247000B377C80126453ECA93D705013EC293D71C
:1024800008013EC4B3F7C80133F3C5013EC89357F2
:1024900005013EC61AD0B377C5013383B8403ECE9E
:1024A0001AD2625733031541F25FD25742561AD4FB
:1024B0003303A840935B080193030105930A0106C7
:1024C0000D4BC16C1AD663900F0F7D5323A663008A
:1024D000630E0B3283AECA00B38FC54033B3F50130
:1024E000333AD001814263840E0093B21F00B3E2FD
:1024F00062003383F84033BC6800014F63840200FC
:10250000133F1300336D8F01125FAE9E329F529FB7
:1025100033B6D50133BCE801330FCF40014663F831
:10252000D501B38F4F41B38F1F4113B61F00A25F78
:1025300033668601FE979697333AF500814F918F67
:1025400019C6330353403303A340933F130032565D
:10255000B3EF4F0132976A97B30FF741637CF803EB
:102560007957AE9E33061F0123A6E30033B7BE00A2
:10257000330FE6003337EF0033361601518F3386C1
:10258000A700B307E60033B7E7003336A600598E3D
:102590004296B29F3E877D1BF113F11AFA87768629
:1025A0001DB7FD166DB533DF7F035243935E070100
:1025B000B3FF7F033303E303C20FB3EFFE01FA8ED1
:1025C00063FC6F00C29F930EFFFF63E70F0163F58B
:1025D0006F00930EEFFFC29FB38F6F4033DF7F0317
:1025E00052433377C701B3FF7F033303E303C20FC3
:1025F0003367F701FA8F637C67004297930FFFFF01
:102600006367070163756700930FEFFF4297330716
:102610006740C20E0253B3EEFE0193DF0E0133FF9B
:10262000CE01B302E30323A6D301338C6F0212431E
:1026300013DD0201338A6F023303E30362936A936B
:1026400063738301669A135C0301B30D4C0133730A
:10265000C301424A4203B3F2C2019A924243338C0D
:102660004F03224A3303E303338D4F031ACC330A5B
:10267000EA0333038A01624A135A0A011A9A6373FE
:102680008A01669D6243337CCA01420C3373C301E5
:1026900062936E93135C0A01333AB301629AB24DAE
:1026A000724C6A9A724D330CEC03338DAF03338F47
:1026B000ED03B38FBF036A9F935D0C016E9F63733D
:1026C000AF01E69F337DCF01420D337CCC016A9C84
:1026D000529C135F0F01333A4C017A9A7E9A83AF72
:1026E000CA00636E47016311EA0C63EA8701639DC8
:1026F000870B636666006319660A63F75F0A138FC8
:10270000FEFFAE9F338DC80023A6E30133BFBF0099
:102710003306ED01333FE601333D1D01336FED011B
:10272000338DA700B307ED0133BFE701333DAD00A3
:10273000336FED01429F7A97636EE8006316E806F7
:10274000636AF5006312F50663E6C800639EC80479
:1027500063ECBF04636E47016318EA0463EA870110
:1027600063948705636666006310660463FE5F0218
:10277000F91EAE9F338FC80023A6D301B3BEBF009E
:102780003306DF01B33ED601333F1F01B36EDF01D5
:10279000330FF500B307DF01B3BED701333FAF00FE
:1027A000B36EDF01C29E7697B38E5F40330F6640F3
:1027B00033BDDF01B33DE601330FAF41014D63F699
:1027C000DF01B30FC34013BD1F00B36FBD01338DD5
:1027D0008741B3BDA7010146B307FD4163840F00E4
:1027E00013361D00330747413366B601B30FC740A8
:1027F000E3120BDA6398D20163166F0063948701CA
:102800006306FA01C64793E71700BEC811667D1636
:1028100036966359C016C64713F7770045C3094576
:102820005647F645136414006309A9080D45630073
:10283000A9086315090813F5F70011486300050995
:102840009107BEC893B747003E97BACA3337F7001F
:10285000E647BA97BECCB3B7E700AE97BECEB9A8ED
:10286000C257D6845A87BEC8D257BECAE257BECC1A
:10287000F257BECE8547630AF73249DB89476301C9
:10288000F7028D47E314F7F88DB68647D284BEC8A9
:102890009647BECAA647BECCB647E1BF13648400C4
:1028A000216A82CE82CC82CA82C87D1AADA899E400
:1028B000A107BEC893B7870041BFFDF8F6473707A9
:1028C0001000328A7D8F01CB3707F0FF7D17F98F1B
:1028D000116ABECE369A9C08F0089843D4430D8303
:1028E000F606558F98C39107E319F6FEF647216760
:1028F0009306E7FF8D83BECE63D746038947630EF9
:10290000F9068D477D176307F900631609008147B3
:102910003A8A21A0EDDCFD57368ABECEBECCBECAB7
:10292000BEC813645400F647460ABE04135A1A017F
:10293000B3E444012316F106231791064646D64612
:102940006647B65719C073201400BA502A5423A002
:10295000C90023A2D90023A4E90023A6F9009A54B0
:102960000A596A4ADA4A4A4BBA4B2A4C9A4C0A4DDF
:10297000F65D4E85FA494D618280D1DC8147130AAC
:10298000F7FF61BF054A31EEC647764A13F7770075
:1029900039C389455647E64613641400630CB902EF
:1029A0008D456304B9026318090293F5F7001145D8
:1029B0006383A502910793B747003E973337F7002B
:1029C000BA96B3B6E600369A39A091E4A10793B758
:1029D0008700E5B7E5FC135A4A01134A1A00137A37
:1029E0001A0005473306C7409307400763CBC71655
:1029F000130B0105135556405A87814A8147639648
:102A0000A7027D8A931725001DE60D465A87814649
:102A1000098EB305F7008C4185060CC31107E35AF4
:102A2000D6FE91473385A74099A81443850711071F
:102A3000B3EADA00E9B713870704141836970327B7
:102A400007FE130800023308C84033170701B3EA32
:102A5000EA00B306FB003307F0408D478148898FB9
:102A600063C0F80811478A073305A7409387070416
:102A70001818BA9776473357C70023A0E7FE914B43
:102A80003386AB400A050A0681455A95EF2040651A
:102A90004647B3375001D98FBEC813F7770025CB0F
:102AA0000947F646136414006302E9060D476309FB
:102AB000E904631E090413F7F700630A7705910719
:102AC000BEC893B7470056473E97BACA3337F70098
:102AD000E647BA97BECCB3B7E700B697BECE05A817
:102AE0008C4203A34600338EE600B3D5C5003313F2
:102AF0000301B3E565002320BE00850891068DB76C
:102B000099E4A107BEC893B7870075BFFDF8764763
:102B1000B7070800F98F99CB82CE82CC82CA82C8CF
:102B200013641400631C0A02054AF5BB9306CB002C
:102B300083270B0003274B00110B8D837607D98F5A
:102B4000232EFBFEE316DBFEF6478D83BECEE30CA1
:102B50000ADC137A1400E3080ADC014A1364240037
:102B6000D9B3D646C647D58FE646D58FF646D58F1C
:102B70009DC382CE82CC82CABAC88947136414002E
:102B80006303F9028D47630CF9009547630B090055
:102B9000C6478D83BEC813642400014A69B3EDF8AB
:102BA000A547BEC8F5B7EDFCE5B782CE82CC82CA98
:102BB00082C8E5B71C41032E4500832E850054458D
:102BC000984183AF450003AF850083A8C50041113C
:102BD00073262000216513D606017D151393060187
:102BE0009395080113D8F601698E93D60801135303
:102BF0000301C181E98E93D8F801631CA60033E577
:102C0000C7013365D5013365650025E56397C608BF
:102C100019A06398A6003365F7013365E5014D8D72
:102C200015ED05456395C6026393E7026311FE0344
:102C3000639FEE01631DB3006300180389EA33E567
:102C4000C7013365D501336565003335A000410107
:102C500082807360180091A00145D5BF21657D1564
:102C60006319A602B3E7C701B3E7D701B3E767006B
:102C70008DC3420313530341E35D03FCA167FD17BA
:102C80000545E396F6FC3367F7013367E7014D8F9F
:102C90005DDFC205C185E3DE05FA05454DBF832F23
:102CA000050003284500032E850083A20500484542
:102CB00083A8450083AE8500D4454111F327200049
:102CC000A16713560501FD1793150501139306011E
:102CD00013D706017D8EC1817D81135303017D8F42
:102CE000FD82631CF600B367F801B3E7C701CD8F1F
:102CF000C5C3736018007955B1A06319F700B3E735
:102D00001201B3E7D701B3E76700E5F741E6B36720
:102D1000F801B3E7C701CD8F93B7170009EB33EF85
:102D20001201336FDF01336F6F00630B0F0481EB10
:102D30006394A600635AC70031C17D5521A07D551B
:102D400091C23685410182806354E60065FDF5B786
:102D5000E364B3FE63986502E3E0CEFF6317DE032E
:102D6000E3EC08FD63141801E3E8F2FDE36018FFEB
:102D700063141801E3EC5FFC0145E9B70545D9B7D9
:102D8000E5FF5DBFE3E465FCC5BFE361DEFDEDB7D4
:102D9000E307C7F651FF814759B7832F0500032882
:102DA0004500032E850083A20500484583A8450001
:102DB00083AE8500D4454111F3272000A167135647
:102DC0000501FD17931505011393060113D706019D
:102DD0007D8EC1817D81135303017D8FFD82631C34
:102DE000F600B367F801B3E7C701CD8FC5C37360C1
:102DF00018000945B1A06319F700B3E71201B3E762
:102E0000D701B3E76700E5F741E6B367F801B3E739
:102E1000C701CD8F93B7170009EB33EF1201336F62
:102E2000DF01336F6F00630B0F0481EB6394A60027
:102E3000635AC70031C17D5521A07D5591C23685A9
:102E4000410182806354E60065FDF5B7E364B3FE9B
:102E500063986502E3E0CEFF6317DE03E3EC08FD51
:102E600063141801E3E8F2FDE36018FF631418012E
:102E7000E3EC5FFC0145E9B70545D9B7E5FF5DBF68
:102E8000E3E465FCC5BFE361DEFDEDB7E307C7F62C
:102E900051FF814759B7317126DB4ED752D556D3F2
:102EA0005ECF62CDAA89DC418841984583AAC500DE
:102EB000032C06004442832B8600032AC60006DF4B
:102EC00022DD4AD95AD166CB6AC96EC77329200060
:102ED000A16613940A0113DB0A014180FD16D6D6C0
:102EE000AAD0BED2BAD42AD83EDA3ADC22DE337B6C
:102EF000DB0093DAFA01630B0B026302DB10C1679C
:102F00005D8C22DE1C185010D8479447F1170E072D
:102F1000F582558F98CBE319F6FEC2578E073ED83F
:102F2000F17785073E9B814C0144F5A0B3E6A700ED
:102F3000D98EC18E6380067C2DC02285EF2080163D
:102F40002A84930644FF93D75640FD8AB5CA71562A
:102F50003386C7021305000293080103158D13077A
:102F6000C60046973306C040639CE8061386F7FF09
:102F70008A07181893870705BA9742573317D7005F
:102F800023A8E7FA0506717B0A0681450818450B58
:102F9000EF200015330B8B4079B719C73A85EF2026
:102FA00060101304050271BF99C73E85EF20800FA2
:102FB0001304050479B7EF20E00E1304050651B79A
:102FC00071563386C70278188D46B305C7008C4109
:102FD000FD1671174CC3E3DAF6FE1386F7FF5DB7F3
:102FE0000C430328C7FF3303C700B395D5003358FC
:102FF000A800B3E505012320B3007117B5B7C98F49
:10300000D98FC18F638B076E420441841344F4FF50
:103010007D8012048D4C13150A01216793570A0114
:1030200041817D17D2D6E2D0A6D2DED4E2C0A6C2BC
:10303000DEC4AAC6F98F135AFA016382076C63894A
:10304000E7784167598DAAC698004C185447104735
:1030500071178E067582D18E14CBE399E5FE064773
:103060000E07BAC071770507BA970147DA973EC4D1
:1030700085073EC293972C00D98FA946B3C44A0155
:1030800063C0F67A894663C7F676FD17854663F70F
:10309000F67C42560645C1681388F8FF9352060134
:1030A000935705013376060133750501B305C50253
:1030B0003383A20213D70501B386C7029A963697C7
:1030C000B383F20263736700C693164393560701F6
:1030D00033770701B3F5050142072E97135F03010C
:1030E00033730301B38862023AC6BAD03308CF0201
:1030F0003307C302469893550701C295B38BE20389
:1031000063F415014168C29B13D80501C16842C030
:103110001388F8FFB3F5050133770701C205BA95A7
:103120003387B600D2563AD093DF0601B3F60601D4
:103130003387A602338AAF0213580701B38ED70232
:10314000D29E7698338EF70363734801469E935858
:103150000801F298C16A468B9388FAFF337717010A
:1031600033781801338E6F0242083A98B3886602AA
:10317000330ADF0213D70801729A5297B30EFF0386
:103180006373C701D69E135E0701416C769E930E52
:10319000FCFF3377D701B3F8D8014207B30D17010D
:1031A000A64872CA13DE0801B3F8D801B38EC8026C
:1031B000B38C120313D70E01B30ACE02E69A5697C8
:1031C000338AC20363739701629A935A0701569A2E
:1031D000416D52CC130AFDFF33774701B3FE4E0118
:1031E000420776973AC86257935E070133774701E3
:1031F000B30AA702338AAE02B38CE702D29C13DA79
:103200000A01669AB38CAE02338CD70363739A01BA
:103210006A9C935C0A01669C62CE416C7D1C337A89
:103220008A01B3FA8A01420A330D5A01025AD29333
:10323000024AB3B5B300C2932E9A5E9A33B8030123
:10324000B30C6A01B38B0C01B38ABB01B3BC6C0134
:10325000B3BB0B0133E87C01333ABA00429A4248CF
:10326000D245B3BDBA01C29AB3BC0A0162482E9AD4
:10327000B305BA012E98B30B9801428B7248EA9AB3
:1032800033BDAA015E981EC09ED2B303A8011EC81A
:10329000D243B3B5B501B3BB9B01333A7A00E243E5
:1032A000336ABA00D6D4B3357B00F243B3EB750171
:1032B000B3057A0133387800C24333BAA3013368C7
:1032C0004801C2952ECAB64513DA0501B3F585014A
:1032D0003388C502B38BB2023306CA02330C7601BF
:1032E000135608016296B382420363747601416CFF
:1032F000E292935B0601DE92C16C938BFCFF16CECB
:10330000F25233767601337878014206429613D82A
:103310000201B3F27201B38BA202338C070313DDF7
:103320000B013305A802B3875702AA97EA9763F304
:10333000A700669C13D507016295C16C2AD013853E
:10334000FCFFE98FB3FBAB00C207B38D7701338578
:10335000D802B38B1F03135D0501B307DE02DE97AE
:10336000EA97338CCF0363F37701669C93DB070105
:10337000B3838B01416C930BFCFFB3F7770133757B
:103380007501C207AA97B38B6E023E8B1ED2B3079C
:10339000E302330DEF0213D507015E9D6A95B30C6E
:1033A000DF0363737501E29C935B0501DE9CC16BD7
:1033B000FD1B337575014205B3F77701D243AA9718
:1033C000724C42451E9C329582533336C500B30B76
:1033D000CC006E95B33DB501DE935A95338DB301A4
:1033E0001EC8B33365011ED49253225B3E95EA9307
:1033F000B337F5003ED61ECADA93B38793011E8B0E
:10340000B253B3BBCB004246BE931ECCF243333D16
:10341000BD01B3B79701333C7C008253B36B7C0191
:10342000B30CEE0233367600336DA601925352464A
:10343000338CAB01AAD6B33B7600A25333367B0064
:10344000E243325B33E6CB006296B3BB6301B3E782
:103450007701B30DF600B38B1E033386E802DE9CC2
:1034600093570601E697330CDE0363F47701C16BD3
:103470005E9C93DB0701C16CE29B138CFCFFB3F7EE
:10348000870133768601338DBF02C2073E96338CA7
:10349000B602B306DA0293570C01EA96B697B38FD9
:1034A0004F0363F3A701E69F93D60701416DB69FD3
:1034B0009306FDFFF58FB376DC00C207338C620202
:1034C000BE963303680293570C01B30C0F03330FFE
:1034D0005F021A9FFA9763F36700EA9C13DF070104
:1034E000669FC16C1383FCFF338DBE02B3F7670088
:1034F00033736C00C2073E93338CE5023307EA0254
:1035000093570C016A97BA97B38E4E0363F3A701E2
:10351000E69E13D70701416DBA9E1307FDFFF98F91
:10352000C2073377EC00B30C0E033E97330E5E02F6
:10353000B3875802B308180313DC0701469E729C38
:1035400063731C01EA9C93580C01E698468BC16892
:10355000138EF8FF337CCC0193180C01B3F7C7012D
:10356000C6973EC8E247338D7D01B33B7D01B297DC
:1035700033B6C700B30CCD00B697B3B6D700B38D42
:10358000FC01338CDD009A97B308EC01BED8B3B7C9
:1035900067003383F800B3BCCC00333CDC0033B6A7
:1035A000FD01B303E300B3EB9B013333F300336658
:1035B0008601B3B8E801B3E868005E96469633B773
:1035C000E300B388B2027696B306E60033B7E600AE
:1035D0003336D601518F4246DA96B387C300B3051E
:1035E000B802BEDAB3B7C7003386F600B337F600C9
:1035F000B3B66601DD8E93D7080133080A03330A98
:103600005A022E9AD29763F4B700C1652E98B3F58B
:10361000C701C205B3F8C801C695C1832E96BA97F3
:10362000B335B600B697AE973E980247B247360517
:10363000B2DCD98FB3EAFA00C2DE336555019C10C3
:103640009018D847944B4D83B606558F98C3910771
:10365000E319F6FE265786573335A000BACC165725
:103660005D8DB657BACA37071000BECEAAC8F98F0B
:10367000638F071E7E059C08F0089843D44305839A
:10368000FE06558F98C39107E319F6FEF6473335CA
:10369000A0008583BECEC647C98FBEC8924791663B
:1036A000FD16BE966354D02AC64713F77700630A07
:1036B000071C894556477646136414006302B91CFB
:1036C0008D456309B91A631E091A93F5F700114570
:1036D0006389A51A9107BEC893B747003E97BACA37
:1036E0003337F700E647BA97BECCB3B7E700B297D7
:1036F000BECE41AA014B854C05B8894C35B0B3E725
:103700008401B3E77701C98FFDC339CDEF1090195C
:10371000AA84938644FF93D75640FD8ABDCA71564A
:103720003386C7021305000293080104158D1307A1
:10373000C60046973306C040639DE8061386F7FF30
:103740008A07181893870705BA9706473317D700D3
:1037500023A0E7FC05060A0681458800EF105018F3
:10376000F177C507858F11B263880B005E85EF1076
:1037700070139304050271BF99C42685EF1090124F
:103780009304050479B76285EF10D0119304050600
:1037900049B771563386C702F8008D46B305C70096
:1037A0008C41FD1671174CC3E3DAF6FE1386F7FF62
:1037B00055B70C430328C7FF3303C700B395D500A3
:1037C0003358A800B3E505012320B3007117ADB746
:1037D000B3E48401B3E47401C98C0947E388048825
:1037E000420541850D47E3430588414441B0814787
:1037F0000547ADB88546B397F60093F6075385EABB
:1038000093F68708B9EA93F70724E38407884144CD
:10381000216AD2CE82CC82CA82C87D1A8144C1A8D4
:10382000BD46E387D7FEAD466389D702D684C2572B
:10383000BEC8D257BECAE257BECCF257BECE8947E9
:103840006388FC328D47E385FCFC8547E398FCE404
:1038500082CE82CC82CA82C821A6D2848647BA8C04
:10386000BEC89647BECAA647BECCB647C1BFA24790
:103870003EC22DB599E4A107BEC893B78700B9BD74
:10388000FDF8F64737071000368A7D8F09CB3707DA
:10389000F0FF7D17F98FBECE9247116A3E9A9C08C1
:1038A000F0089843D4430D83F606558F98C39107CB
:1038B000E399C7FEF64721679306E7FF8D83BECEE7
:1038C00063D746038947630EF9068D477D17630763
:1038D000F9006316090081473A8A21A0EDDCFD5703
:1038E000368ABECEBECCBECABEC813645400F647EC
:1038F000460ABE04135A1A01B3E444012316F10622
:10390000231791064646D6466647B65719C0732018
:103910001400FA506A5423A0C90023A2D90023A49A
:10392000E90023A6F900DA544A592A5A9A5A0A5B3E
:10393000FA4B6A4CDA4C4A4DBA4D4E85BA59296158
:103940008280D1DC8147130AF7FF61BF054AB1EEDF
:10395000C647764A13F7770039C389455647664606
:1039600013641400630CB9028D456304B902631833
:10397000090293F5F70011456383A502910793B7F8
:1039800047003E973337F7003A963336E600329ACF
:1039900039A091E4A10793B78700E5B7E5FC135A76
:1039A0004A01134A1A00137A1A000547B306D74092
:1039B0009307400763CAD716130B010513D556406A
:1039C0005A87814A81476395A702FD8A931725008C
:1039D00095E60D465A87098EB305F7008C4185069A
:1039E0000CC31107E35AD6FE91473385A74099A827
:1039F000104385071107B3EACA00F1B7138707051B
:103A000010183297032707FD130800023308D84027
:103A100033170701B3EAEA003306FB003307F0402F
:103A20008D478148898F63C0F80811478A0733059D
:103A3000A740938707051818BA9776473357D700DA
:103A400023A8E7FC914B3386AB400A050A06814563
:103A50005A95EF10E0684647B3375001D98FBEC87A
:103A600013F7770025CB0947F64613641400630269
:103A7000E9060D476309E904631E090413F7F7001B
:103A8000630A77059107BEC893B7470056473E972C
:103A9000BACA3337F700E647BA97BECCB3B7E700E8
:103AA000B697BECE05A80C4203234600330EE600AF
:103AB000B3D5D50033130301B3E565002320BE0061
:103AC000850811068DB799E4A107BEC893B7870092
:103AD00075BFFDF87647B7070800F98F99CB82CEFE
:103AE00082CC82CA82C813641400631C0A02054A8D
:103AF000FDBB9306CB0083270B0003274B00110B64
:103B00008D837607D98F232EFBFEE316DBFEF64767
:103B10008D83BECEE30D0ADC137A1400E3090ADCC0
:103B2000014A13642400E1B3D646C647D58FE64662
:103B3000D58FF646D58F9DC382CE82CC82CABAC8B5
:103B40008947136414006303F9028D47630CF9007D
:103B50009547630B0900C6478D83BEC813642400D4
:103B6000014A71B3EDF8A547BEC8F5B7EDFCE5B75E
:103B7000216A82CE82CC82CA82C87D1A8DBB5971DD
:103B8000D2CCD6CAE6C22A8A86D6A2D4A6D2CAD0B7
:103B9000CECEDAC8DEC6E2C4EAC09441D8419C4524
:103BA00083AAC50003230600832846000846832C09
:103BB000C600F32920003EDC3EC493970A01C1836E
:103BC00013941A008A8556DE3EC636D83ADA36C0D5
:103BD0003AC2458093DAFA01130641FFAE872E8878
:103BE000D8479447F1170E07F582558F98CBE31904
:103BF000F6FE024993970C01C183139C1C000E0929
:103C000046DA46CA930801012ADC66DE2ACC3ECE9B
:103C10004AC01AD81AC8135C1C0193DCFC0150007E
:103C2000C6874685D8479447F1170E07F582558F0A
:103C300098CBE319F6FEC244A167FD178E0426C88F
:103C40006319FC006247D247D98F7247D98FC58F5D
:103C500099E393CC1C00B3078441639D5C6F635967
:103C6000F024124BA24BB24C63130C0A524662472B
:103C7000F245B366E600CD8EC58E8DEA21677D17CD
:103C80006390E70233677B0133679701336727014E
:103C900001CB13DC2C01134C1C00137C1C00120CF8
:103CA0004AD05AD25ED466D66284E5A49386F7FFE2
:103CB0009DEACA945A9626D0B3B42401B30796005D
:103CC0003ED233366601B3B797005D8E5E97B30779
:103CD000C7003ED433377701B3B7C7005D8FE69591
:103CE0002E97854789A221677D17E390E77A33678E
:103CF0007B013367970133672701014419C713D448
:103D00002C0113441400058812044AD089AC2167A1
:103D10007D176317E402B3677B01B3E79701B3E74D
:103D20002701014799C713D72C0113471700058BAB
:103D30001207A2874AD05AD25ED466D63A8491AC92
:103D40007247B7060800558F3ACE13074007E34283
:103D5000F774BE8693D75640468681440147631563
:103D6000F702FD8A139727008DE60D461D8EB38559
:103D7000E8008C418506910823AEB8FEE359D6FED3
:103D80001147B307F740B1A00C4205071106CD8CCF
:103D9000F9B7130607040A96032606FD1308000266
:103DA0003308D84033160601D18CBA983306E04068
:103DB0000D4701431D8F634CE30C1146B307F640DA
:103DC00072460A07130707040A97B356D60023283A
:103DD000D7FC11461D8E8A073E950A068145EF10D5
:103DE0002030C247B3349000C58F3EC84247D24707
:103DF0004A97DA973AD033372701B386E70036D2AD
:103E0000B3B6E6006247B3B76701D58F5E97B306D6
:103E1000F70036D4B3B6F600F24733377701558F43
:103E2000E6973E97A287370608003AD6798E8256E3
:103E3000E30806523706F8FF7D16718F3AD68507DC
:103E4000FE061810681010434C430582FE054D8E87
:103E500010C31107E319A7FE325705833AD633374B
:103E6000D0008256558F3AD021677D17639FE7486F
:103E70006386094C0D476399E94C63810A4CFD57F1
:103E80003ED63ED43ED23ED0A167F91765A983A5A0
:103E9000080003AE4800B38EC800B3D5D500331E6A
:103EA0000E01B3E5C50123A0BE000503910821B7AB
:103EB000524BE24BF24C63840720B3078C4045E43D
:103EC00092462247324533E6E600498E33662601A4
:103ED0000DEA21677D17639EE70033677B01336737
:103EE0009701458F19C713D42C011344140005887A
:103EF000120426D05AD25ED466D681466388071E45
:103F0000F9A41386F7FF15EA2699DA964AD03339D1
:103F10009900B38726013ED2B3B66601B3B7270135
:103F2000DD8E5E97B307D7003ED433377701B3B742
:103F3000D7005D8F66952A976DB321677D17E39053
:103F4000E75633677B0133679701458F014419C7F3
:103F500013D42C01134414000588120426D05AD21D
:103F60005ED466D63DA021677D176316EC02B36769
:103F70007B01B3E79701C58F014499C713D42C0186
:103F8000134414000588120426D05AD25ED466D693
:103F9000E28781462DAC3247B7060800558F3AC6F6
:103FA00013074007E341F7503E8693070002B347EB
:103FB000F602AE8601440147634BF7023E8763D3A6
:103FC000070001479378F60193962700639608024D
:103FD0000D4601471D8E3385D5000841050788C170
:103FE0009105E35AE6FE1147B307F74089A88842D6
:103FF00005079106498CC9B7130500023366A6026E
:104000000A07130707040A97032707FCB69501431D
:10401000B306D0403306C5403317C700598C0D474F
:104020001D8F634EE3069146B387F640B2460A07FA
:10403000130707040A97B3D616012320D7FC1147AC
:1040400001466345F7001D8F131627008A073305C5
:10405000F8008145EF10C008824733348000C18FDB
:104060003EC0024792472697DA973AD033379700F7
:10407000B386E70036D2B3B6E6002247B3B767018E
:10408000D58F5E97B306F70036D4B3B6F600B247C5
:1040900033377701558FE6973E97E28769B38841BA
:1040A00003AE4500B38ED50033551501331ECE0047
:1040B0003365C50123A0AE00050391059DB72165B9
:1040C000930714009306E5FFFD8E1246A245324782
:1040D0006390061EB367B600D98FB3E72701631F4D
:1040E0000412D9E326D05AD25ED466D6825512562F
:1040F000A2563257B3E7C500D58FD98FE38607287C
:1041000032DA2ED836DC3ADE1C185010D8479447E5
:10411000F1170607FD82558F98CBE319F6FEC257BB
:10412000860713F77700E30907240947F25613645B
:104130001400E381E9240D47E387E922E39E092285
:1041400013F7F7001146E309C722910793B7470019
:1041500052573E973337F700E257BA97B3B7E700A5
:10416000B6973EDE6F005021B3677B01B3E797013E
:10417000C58F91E74AD032D22ED43AD685BFCA94A1
:10418000329B26D0B3B42401B3079B003ED2333B0D
:10419000CB00B3B79700336BFB00AE9BB3876B01CB
:1041A0003ED4B3BBBB00B3B76701B3EBFB0066976C
:1041B000BA9BB7070800B3F7FB0099E35ED63DB79B
:1041C000B707F8FFFD17B3FBFB005ED68547025724
:1041D00013767700E307061C0946B25513641400F2
:1041E000E38FC91A0D46E384C91AE39C091A1376B2
:1041F000F7001145E307A61A11073AD01337470015
:1042000012563A9632D23336E600225732973AD4D3
:104210003337C7002E973AD66F00B0187D15631F4D
:10422000A404E388072A13542701134414000588C3
:1042300012046312AC0633657B0133659501458D2D
:10424000E30205283707040033F7EC00E3000728F2
:1042500085CFA1673ED602D402D202D01C104C08F2
:10426000D8479047F1170E077582518F98CBE39985
:10427000F5FE8257814A8E073ED019A86314AC0020
:10428000014455BF014481EB26D05AD25ED466D694
:10429000A167FD172DBF336B7B01336B9B01336B24
:1042A0009B00E3180BFA4AD032D22ED43AD6CDB7BF
:1042B000CA94329B26D0B3B42401B3069B0036D2F5
:1042C000333BCB00B3B69600AE9B336BDB00B386BB
:1042D0006B0136D4B3BBBB00B3B666016697B3EBD4
:1042E000DB00BA9B5ED618106C10144350438582D5
:1042F0007E06D18E14C31107E399E5FEA166FD1673
:1043000032576387D70005833AD681460144C1B549
:10431000638609020D47639EE90063810A02FD5727
:104320003ED63ED43ED23ED0A1678146F917154411
:1043300079BD0947E395E9FEE3830AFE02D602D47C
:1043400002D202D08146E5B70947E39AE9B2E38891
:104350000AB2EDB76356F01C124BA24BB24C631E6F
:104360000C06D24562437247B3E66500D98EC58E0E
:10437000E38606901388F7FF63140804B306994098
:104380003306BB403335D900B337CB00098E014526
:104390006376D900B385654113B51500B3856B40CD
:1043A0005D8DB3B8BB00898D09C5B307734113B8E0
:1043B00017003387EC40B36718011D8F85470DA2A6
:1043C00021677D17E385E7929307400763D50703CD
:1043D00002CE02CC02CA85476DA821677D17E30C87
:1043E000E4927247B7060800558F3ACE130740078C
:1043F000E340F7FE3E8893575840C6868144014704
:104400006318F7021378F80113972700631708025F
:104410000D4681461D8EB385E8008C4185069108C6
:1044200023AEB8FEE359D6FE1147B307F740B1A05B
:10443000904205079106D18CE1B7930607048A964E
:1044400083A606FD93050002B3850541B396B60029
:10445000D58CBA98B306E0400D4701431D8F6340E9
:10446000E30A9146B387F640F2460A0713070704AA
:104470000A97B3D606012328D7FC11461D8E8A075A
:104480003E950A068145EF00B045C247B33490001F
:10449000C58F3EC8C2465247B306D9403306EB40EB
:1044A000B337D900B335CB001D8E81476376D90071
:1044B00033076741933717006247CD8F0145B385B6
:1044C000EB4033B8BB009D8D89C733077741133567
:1044D0001700724733650501A2873387EC40098FC7
:1044E00036D0B706080032D23AD62ED43376D7006B
:1044F00063080666FD16758F3AD63E8449A903A661
:10450000080003AE4800B38ED80033560601331EB0
:10451000BE003366C60123A0CE000503910881B713
:10452000D24B624B724D63850722B3078C404DEC32
:104530009248224E3247B3E6C801D98EB3E626012F
:104540009DE621677D17639EE70033E76B013367C4
:10455000A701458F19C713542D0113441400058872
:10456000120426D05ED25AD46AD6E68A79B2138370
:10457000F7FF63140304B386244133861B41B3B5AC
:10458000D400B3B7CB0001450D8E63F6D400B388D9
:10459000784113B51800B305CB415D8D3338BB00AE
:1045A000898D09C5B3076E4113B317003307ED407A
:1045B000B36703011D8FE68A11B521677D17639AE2
:1045C000E76E33E76B013367A701458F014419C7D5
:1045D00013542D01134414000588120426D05ED212
:1045E0005AD46AD6E68A75B221677D176315EC0244
:1045F000B3E76B01B3E7A701C58F014499C7135413
:104600002D01134414000588120426D05ED25AD41A
:104610006AD6E287C1BF3247B7060800558F3AC64F
:1046200013074007634BF7683E8393070002B347C5
:10463000F302AE8601440147634AF7023E8763D323
:10464000070001471375F301939627000DE50D460A
:1046500001471D8E3385D5000841050788C19105A6
:10466000E35AE6FE1147B307F74089A890420507D1
:104670009106518CD1B7130600023363C3020A07B7
:10468000130707040A97032707FCB6958148B3066A
:10469000D0403303664033176700598C0D471D8F98
:1046A00063C8E8089146B387F640B2460A07130785
:1046B00007040A97B3D6A6002320D7FC114701466A
:1046C0006345F7001D8F131627008A073305F8008E
:1046D0008145EF00F020824733348000C18F3EC017
:1046E00082461247B386D4403386EB40B3B7D4003A
:1046F000B3B5CB001D8E814763F6D40033077741F5
:10470000933717002247CD8F0145B305EB4033386F
:10471000BB009D8D89C733076741133517003247AA
:1047200033650501E2873307ED40098FE68A4DBB0B
:10473000904103AE4500B38ED5003356A600331E1C
:104740006E003366C60123A0CE008508910589BF9F
:104750002168930614001307E8FFF98E1246A2455C
:10476000324563990618B3E76B013367B600B3E7C8
:10477000A701498FC58F3367270171E809EF26D05C
:104780005ED25AD46AD6E68AE3920796938AE9FF04
:1047900093BA1A00A1BA91E74AD032D22ED42AD6BF
:1047A000B1B2B307994033037641B338F900B33659
:1047B0006600B308134101476374F900133713000F
:1047C000558FB3866541B3BED500338EE6400148B0
:1047D00019C313B816003368D8013307A54133074E
:1047E0000741370808003AD672D446D23ED0337813
:1047F000070163080804338924413386CB40B3B7EB
:104800002401B3BBCB001D8E814763F42401933791
:104810001300B3EB7701B305BB40333BBB008147CB
:10482000B385754163840B0093B716003305AD4023
:10483000B3E767011D8D2AD62ED432D24AD0E68A3C
:1048400075B0B3E71701B3E7C701D98F35BF7D183E
:104850006316040563090748135425011344140023
:104860000588120463120C09638C0746B70704001D
:10487000B377FD00638407462DC3A1673ED602D4FB
:1048800002D202D01C104C08D8479047F1170E07EF
:104890007582518F98CBE399F5FEE1BA63140C0150
:1048A0000144D9B729E38DEBA1673ED602D402D2E9
:1048B00002D01C104C08D8479047F1170E0775829C
:1048C000518F98CBE399F5FE8257814A41448E0778
:1048D0003ED0A167FD17E5B8014426D05ED25AD478
:1048E0006AD6E68A75B20144C9FB4AD032D22ED4C8
:1048F0002AD679BAB308994033037641333E190179
:10490000B3366600330EC341014763741901133790
:104910001300558F3388654133BF0501B30EE8405E
:10492000814619C393361800B3E6E6013307A54163
:10493000158FB70608003AD676D472D246D0F98ED3
:10494000638C060E338924413386CB4033B7240170
:10495000B3BBCB00198E014763F424011337130056
:10496000B305BB40B36B7701333BBB00B3857541E7
:1049700063840B00933718003305AD4033EB6701B8
:10498000330565412AD62ED432D24AD0E68A325532
:1049900069C1EF002071930445FF1307000213F56E
:1049A000F401B3C7E40271C993080102B3E6E4025B
:1049B0003306D740F156B386D7021387C600469711
:1049C000B306D040639BE80C02571386F7FF8A07B3
:1049D000938707048A973317A70023A0E7FE0506ED
:1049E0000A0681450810EF00A06F63C38416818C0E
:1049F00085041305000233C5A40214103687014450
:104A0000814763CBA70AAA8763530500814713F840
:104A1000F401131725006316080A0D468147098E15
:104A2000B385E6008C4185078CC29106E35AF6FEF9
:104A300091473385A740D1A8B3E7C801B3E7D701B1
:104A4000D98FB1F7938AE9FF93BA1A0001446FF046
:104A5000EFE9225511C5EF00E0641305050225BFFB
:104A6000125511C5EF000064130505042DB702555A
:104A7000EF0040631305050639BF71563386C70240
:104A800078108D46B305C7008C41FD1671174CC3D5
:104A9000E3DAF6FE1386F7FF99B70C430328C7FF46
:104AA0003303D700B395A5003358C800B3E505011B
:104AB0002320B300711739B7104385071107518CB4
:104AC00089B793060002B3E4D4028A0793870704E8
:104AD0008A9783A707FE8148858EB397D7005D8CA0
:104AE0001C103386E7008D473307E040898F63C190
:104AF000F80411473305A74032578A079387070404
:104B00008A973357070123A0E7FE9147014663C503
:104B1000A700898F139627001C100A053E95814532
:104B2000EF00005C0257B3378000D98F3ED039BF09
:104B30000C4203234600330EE600B3D505013313C0
:104B4000D300B3E565002320BE008508110645B7F4
:104B50003257B706F8FFFD16758FB30794403AD663
:104B600001446FF08FB963990A00A10793B78700DA
:104B70006FF00FDEE39B0AFEF2568147D18293C6A7
:104B80001600858A6FF0AFE481476FF08FC0639A9B
:104B90000A0021073AD0133787006FF06FE6E39AD7
:104BA0000AFE91C61377140019C313642400325708
:104BB000B7060800F98EB9C2B706F8FFFD16758F63
:104BC000A1663AD685071387F6FF6399E702014786
:104BD000638009020D466398C900638B0A007D5704
:104BE0009387E6FF31A00946E39BC9FEE3890AFEED
:104BF0003AD63AD43AD23AD01364540018106C1012
:104C0000144350438D827606D18E14C31107E319E5
:104C1000B7FEB25621661307F6FF8D8236D6639E25
:104C2000E700925502574D8FA2554D8F558F11C7F2
:104C300032D602D402D202D0814AB255C607C58309
:104C4000BE0AB3EAFA00231EB102231F5103025623
:104C500092562257F25719C073201400B6502654AA
:104C60002320CA002322DA002324EA002326FA00A4
:104C700096540659F649D64A464BB64B264C964CA6
:104C8000064D5285664A656182809307400763D36B
:104C9000D78C02CE02CC02CA85476FF00F959307DE
:104CA000400763D4C7B002C602C402C285476FF092
:104CB0002FBB93074007E3DA679602C602C402C21D
:104CC000854731BC639107DE6FF00FDC41446FF024
:104CD0002FD863078CDA01446FF00FDB414469BEC3
:104CE000E31507C0D1B6E3108CBC5DBE79711841E5
:104CF00083284500032885005C4506D622D4F32688
:104D0000200093960701139617003EC693D5F7012E
:104D100091673AC046C242C43AC846CA42CC4582AC
:104D20001385E7FFC182634FC50065EE3367170146
:104D300033670701558F014581455DEFB25022541D
:104D400045618280F5E11387E7036343C70E41673E
:104D50009387F706B3E5E600918F18082ECE93D619
:104D600057403A88014601443A85832808000506E1
:104D7000110833641401E39AC6FEFD8B13962600D6
:104D80008DE38D45958D3308C700032808008507FE
:104D9000232007011107E3D8F5FE9147B386D740DA
:104DA00091A0130806020A98032808FF13030002C3
:104DB0003303F34033186800336404013297330837
:104DC000C0400D46014E158E634CCE0211470A06B7
:104DD000B306D7401307060233062700B3D5F50004
:104DE0002328B6FE1146158E8A0681450A06369599
:104DF000C52C4245D24539D0854773A017003DBF29
:104E000083280700832E4700330F0701B3D8F8002B
:104E1000B39E6E00B3E8D80123201F01050E1107D1
:104E200065B701458145C9BF01458145C147F1B716
:104E30007D55FD55E5BF397126DA06DE22DC4AD8FC
:104E40004ED6B3E7C500AA84E1CF2E84B28921CE25
:104E50003285892C9307150311691309E90313D7C8
:104E6000574022C84ECA02CC02CEFD8B3309A9405E
:104E7000A1C371563306C70213050002930801014E
:104E80001D8D9306C600C6963306C040639BD806A8
:104E90001306F7FF0A07130707020A973314F400F3
:104EA000232887FE2DA02E85F52A130505025DB760
:104EB00071563306C7027C088D46B385C7008C4106
:104EC000FD16F117CCC3E3DAE6FE1306F7FF05067D
:104ED0000A06814508082924F24723172101424682
:104EE0002316F100D2466247B247F250625490C096
:104EF000D4C098C4DCC44259B2592685D254216129
:104F000082808C4203A8C6FF3383C600B395F500A8
:104F10003358A800B3E505012320B300F116BDB74F
:104F200002CE02CC02CA02C801497DB75D712AA433
:104F3000A2C4CAC04EDE2249324486C6A6C252DC92
:104F4000AA89F3272000935444019317C40093F4D3
:104F5000F47FB183138714004AD03ED202D602D424
:104F60001377E77F7D8025C393D64700116736D638
:104F7000F20793564900130707C0D58F7209269789
:104F80003ED44AD202D08144B2573E04598C231EEB
:104F9000F100231F810082551256A256F24799C094
:104FA00073A01400B640264423A0B90023A2C90070
:104FB00023A4D90023A6F90096440649625A4E85D7
:104FC000F2596161828033E52701CDE401474DDD6F
:104FD000A9C73E85C1282A8A13071A039357574049
:104FE0007D8B21C371563386C702130500029308D7
:104FF0000102198D9306C600C6963306C040639C15
:10500000D8041386F7FF8A07938707021408B69718
:105010003317E90023A8E7FE25A06920130A05023B
:1050200065BF71563386C70278108D46B305C70039
:105030008C41FD1671174CC3E3DAF6FE1386F7FFB9
:1050400005060A0681450810612811671307C7C0C5
:105050003307474115BF8C4203A8C6FF3383C60000
:10506000B395E5003358A800B3E505012320B3004C
:10507000F11671B70DC51397C70193564900558FA7
:1050800093D437013AD49183216793C414007209F1
:10509000D98F92044AD202D03ED67D17F5B581440D
:1050A0002167E5BFC1676376F5029337051093C7A3
:1050B00017008E0737E70640930600029D8E335592
:1050C000F50093070745AA9703C507003385A64057
:1050D000828037070001C147E36EE5FCE147D9BF95
:1050E0003D432A876373C3029377F700BDEFADE5B5
:1050F000937606FF3D8ABA960CC34CC30CC74CC7C7
:105100004107E36BD7FE11E28280B306C3408A06F3
:105110009702000096966780A6002307B700A306B3
:10512000B7002306B700A305B7002305B700A30403
:10513000B7002304B700A303B7002303B700A302FB
:10514000B7002302B700A301B7002301B700A300F3
:10515000B7002300B700828093F5F50F9396850082
:10516000D58D93960501D58D61B79396270097024B
:10517000000096968682E78086FA9680C1171D8F7A
:105180003E96E374C3F8A5B73367B500FD530D8BA6
:1051900079E7B7877F7F9387F7F710419441B37220
:1051A000F6003363F600BE92B3E262006397720CBE
:1051B0006318D6065041D441B372F6003363F6004B
:1051C000BE92B3E262006398720A631BD604104574
:1051D0009445B372F6003363F600BE92B3E2620008
:1051E0006391720A631ED6025045D445B372F6002D
:1051F0003363F600BE92B3E26200639A72086311F1
:10520000D60210499449B372F6003363F600BE9299
:10521000B3E26200639372085105D105E30FD6F63D
:105220001317060193970601631CF7001357060135
:1052300093D706013305F7409375F50F91E9828006
:105240004183C1833305F7409375F50F91E1828067
:105250001377F70F93F7F70F3305F7408280034674
:10526000050083C60500050585056313D60065FAAC
:105270003305D640828011059105E312D6FE014523
:1052800082802105A105E31CD6FC01458280310501
:10529000B105E316D6FC014582804105C105E31046
:1052A000D6FC01458280011106CE22CC00102326B7
:1052B000A4FE0325C4FEEFB0D309AA873E85F240C1
:1052C000624405618280011106CE22CC00102326A3
:1052D000A4FE8546054685450325C4FEEFB0033090
:1052E000AA873E85F240624405618280011106CEA4
:1052F00022CC00102326A4FE0325C4FE6D37AA8706
:105300003E85F240624405618280011106CE22CCC6
:1053100000102326A4FE0325C4FE7537AA873E8508
:10532000F240624405618280011106CE22CC001059
:105330002326A4FE81450325C4FEEFA0535CAA8763
:105340003E85F240624405618280011106CE22CC86
:1053500000102326A4FE0325C4FEF937AA873E8544
:10536000F240624405618280011106CE22CC001019
:105370002326A4FE2324B4FE2322C4FEFD560326C6
:1053800044FE832584FE0325C4FEEF803019AA87DE
:105390003E85F240624405618280597186D6A2D46E
:1053A0008018232EA4F8232604FE232404FE93074A
:1053B00044FC114681453E852533834744FCDD9BF3
:1053C0002302F4FC834744FCED9B2302F4FC834757
:1053D00044FCF99B2302F4FC930784FC614681455D
:1053E0003E85FD39930700302328F4FC832744FDD4
:1053F000F59B232AF4FCA147231BF4FC930784FCB0
:10540000C1072146930550053E85D939B7A7070046
:10541000938707122328F4FA93070032232CF4FA17
:1054200093074038232EF4FA9307B036232AF4FA70
:105430009307803E2320F4FC01468D45B7C7064004
:105440001385070D15372322A4FE832744FE63D15D
:105450000702B7C706401385C70DEFD07035832507
:1054600044FEB7C706401385870EEFD0703401A005
:10547000930704FBBE85032544FEEFC0E17D232096
:10548000A4FE832704FE85C3B7C706401385C70D56
:10549000EFD01032832504FEB7C7064013850710EE
:1054A000EFD0103101A0930744FCBE85032544FED4
:1054B000EFC0817D2320A4FE832704FE85C3B7C7E8
:1054C00006401385C70DEFD0B02E832504FEB7C765
:1054D00006401385C711EFD0B02D01A0232604FE8E
:1054E000930784FC6146BE85032544FEEF70C062CD
:1054F0002320A4FE832704FE6354F008832744FD81
:10550000C18B8DC39307C4FABE85032544FEEFC04B
:10551000A17A2320A4FE0327C4FA9307400EE311C7
:10552000F7FC79A0814701482320F4FA232204FBE9
:10553000930604FA930784FC21476146BE85032540
:1055400044FEEFC0617A2320A4FE832704FE63D0CB
:105550000702B7C706401385C70DEFD07025832516
:1055600004FEB7C7064013858713EFD07024832746
:10557000C4FE85072326F4FE85472324F4FE8DB759
:10558000032784FE8547E31DF7F4B7C7064013855C
:10559000C70DEFD0F0218325C4FEB7C706401385A1
:1055A0000715EFD0F020232604FE232404FE0DBFB0
:1055B000032544FEEF60507C81473E85B65026545B
:1055C00065618280597186D6A2D48018232EA4F8F2
:1055D000232604FE232404FE930744FC1146814540
:1055E0003E85EFF0FFAF834744FCDD9B2302F4FCD4
:1055F000834744FCED9B2302F4FC834744FCF99B66
:105600002302F4FC834744FCF59B2302F4FC93073C
:1056100084FC614681453E85EFF09FACC547232859
:10562000F4FC832744FDF59B232AF4FCA147231BAC
:10563000F4FC930784FCC10721469305A00A3E852C
:10564000EFF01FAAB7A70700938707122328F4FAE1
:1056500093070032232CF4FA93074038232EF4FAF0
:105660009307B036232AF4FA9307803E2320F4FCF4
:1056700001468D45B7C7064013854716F5312322ED
:10568000A4FE832744FE63D10702B7C706401385F3
:10569000C70DEFD0F011832544FEB7C70640138530
:1056A0000717EFD0F01001A0930704FBBE85032578
:1056B00044FEEFC0615A2320A4FE832704FE85C365
:1056C000B7C706401385C70DEFD0900E832504FEA3
:1056D000B7C7064013858718EFD0900D01A0930738
:1056E00044FCBE85032544FEEFC0015A2320A4FEDE
:1056F000832704FE85C3B7C706401385C70DEFD0C7
:10570000300B832504FEB7C706401385471AEFD038
:10571000300A01A0232604FE930784FC6146BE855F
:10572000032544FEEF70403F2320A4FE832704FEA0
:105730006354F008832744FDC18B8DC39307C4FADB
:10574000BE85032544FEEFC021572320A4FE032776
:10575000C4FA9307400EE311F7FC79A08147014892
:105760002320F4FA232204FB930604FA930784FC13
:1057700021476146BE85032544FEEFC0E156232044
:10578000A4FE832704FE63D00702B7C70640138533
:10579000C70DEFD0F001832504FEB7C7064013857F
:1057A000071CEFD0F0008327C4FE85072326F4FEF4
:1057B00085472324F4FE8DB7032784FE8547E31D28
:1057C000F7F4B7C706401385C70DEFD0607E832579
:1057D000C4FEB7C706401385871DEFD0607D232622
:1057E00004FE232404FE0DBF032544FEEF60D058C1
:1057F00081473E85B650265465618280597186D6B0
:10580000A2D48018232EA4F8232604FE8147014841
:105810002320F4FA232204FBA30504FE930744FC8F
:10582000114681453E85EFF0BF8B834744FCDD9BED
:105830002302F4FC834744FCED9B2302F4FC8347E2
:1058400044FCF99B2302F4FC930784FC61468145E8
:105850003E85EFF0FF88C5472328F4FC832744FDED
:10586000F59B232AF4FCA147231BF4FC930784FC3B
:10587000C1072146C5453E85EFF09F86B7A70700C3
:10588000938707122328F4FA93070032232CF4FAA3
:1058900093074038232EF4FA9307B036232AF4FAFC
:1058A0009307803E2320F4FC01468D45B7C7064090
:1058B0001385C71EEFF05FAB2322A4FE832744FEAF
:1058C00063D10702B7C706401385C70DEFD0406EFE
:1058D000832544FEB7C706401385871FEFD0406D70
:1058E00001A0930704FBBE85032544FEEFC0C1362B
:1058F0002320A4FE832704FE85C3B7C70640138573
:10590000C70DEFD0E06A832504FEB7C706401385B4
:105910000721EFD0E06901A0930744FCBE85032571
:1059200044FEEFC061362320A4FE832704FE85C316
:10593000B7C706401385C70DEFD08067832504FEE7
:10594000B7C706401385C722EFD0806601A0232683
:1059500004FEB7270C4103C7C7088547631DF70C32
:10596000B7270C4123860708930700402328F4FC3F
:10597000B7270C4183C7D708850793F7F70F230C88
:10598000F4FCB7270C4183C7D708BE86138701E113
:1059900093971600BA9703D7070093074006B357AB
:1059A000F702C207C18393F7F70FA30CF4FCB727E4
:1059B0000C4183C7D708BE86138701E19397160071
:1059C000BA9783D7070013F7F70F834694FD930721
:1059D000C0F9B387F60293F7F70FBA9793F7F70F6B
:1059E000230DF4FCA30D04FC230E04FCA30E04FC05
:1059F000230F04FCA30F04FC930604FA930784FC12
:105A000021476146BE85032544FEEFC0E12D2320DA
:105A1000A4FE832704FE63D00702B7C706401385A0
:105A2000C70DEFD0E058832504FEB7C706401385A5
:105A30008724EFD0E057B7270C4103C7E708854715
:105A40006311F710B7270C4123870708B7270C41CC
:105A500003C70709938781E383C707006303F70E32
:105A6000B7270C4103C70709938781E383C7070062
:105A7000B98FA305F4FE938781E383C7070003472B
:105A8000B4FEF98F93F7F70F81E7A30C04FC21A074
:105A90008547A30CF4FC232604FE31A88347B4FEFB
:105AA0008DC38347B4FE8583A305F4FE8327C4FE1C
:105AB00085072326F4FE0327C4FE9D47E3F0E7FE97
:105AC00011A00100930700202328F4FC8327C4FEC3
:105AD00093F7F70F230CF4FC230D04FCA30D04FC37
:105AE000230E04FCA30E04FC230F04FCA30F04FCF0
:105AF000930604FA930784FC21476146BE8503257B
:105B000044FEEFC0611E2320A4FE832704FE63D061
:105B10000702B7C706401385C70DEFD0604983253C
:105B200004FEB7C7064013854726EFD06048938729
:105B300081E303C70700B7270C412388E708232622
:105B400004FE930784FC6146BE85032544FEEF6096
:105B5000B07C2320A4FE832704FEE35CF0DE8327D1
:105B600044FDC18B8DC39307C4FABE85032544FE53
:105B7000EFC081142320A4FE0327C4FA9307400E2C
:105B8000E319F7DC89AA1305800AEFC0C06D8327EB
:105B900004FD13079025638BE71013079025E36A34
:105BA000F7DA1307501F638FE70C1307501FE362E8
:105BB000F7DA130710196383E70A13071019E36A6A
:105BC000F7D81307D0126387E7061307D012E362F2
:105BD000F7D8130750066387E7001307900C638715
:105BE000E702CDA88327C4FEC117A29783C787FE0B
:105BF000139707014183B727004193860700832746
:105C0000C4FE8607B6972390E700E9A08327C4FE69
:105C1000C117A29783C787FE139707014183B72750
:105C20000041938607008327C4FE8607B69723901A
:105C3000E7004DA08327C4FEC117A29783C787FE44
:105C4000139707014183B7270041938607008327F5
:105C5000C4FE8607B6972390E700ADA88327C4FE4D
:105C6000C117A29783C787FE139707014183B72700
:105C70000041938607008327C4FE8607B6972390CA
:105C8000E70089A88327C4FEC117A29783C787FEB0
